{
  "contractName": "Voting",
  "abi": [
    {
      "constant": true,
      "inputs": [],
      "name": "name",
      "outputs": [
        {
          "name": "",
          "type": "string"
        }
      ],
      "payable": false,
      "stateMutability": "view",
      "type": "function",
      "signature": "0x06fdde03"
    },
    {
      "constant": true,
      "inputs": [
        {
          "name": "",
          "type": "uint256"
        }
      ],
      "name": "candidates",
      "outputs": [
        {
          "name": "id",
          "type": "uint256"
        },
        {
          "name": "name",
          "type": "string"
        },
        {
          "name": "voteCount",
          "type": "uint256"
        }
      ],
      "payable": false,
      "stateMutability": "view",
      "type": "function",
      "signature": "0x3477ee2e"
    },
    {
      "constant": true,
      "inputs": [],
      "name": "totalCandidates",
      "outputs": [
        {
          "name": "",
          "type": "uint256"
        }
      ],
      "payable": false,
      "stateMutability": "view",
      "type": "function",
      "signature": "0x3866965c"
    },
    {
      "constant": true,
      "inputs": [],
      "name": "totalVoters",
      "outputs": [
        {
          "name": "",
          "type": "uint256"
        }
      ],
      "payable": false,
      "stateMutability": "view",
      "type": "function",
      "signature": "0x5f5300ff"
    },
    {
      "constant": true,
      "inputs": [
        {
          "name": "",
          "type": "address"
        }
      ],
      "name": "voters",
      "outputs": [
        {
          "name": "",
          "type": "bool"
        }
      ],
      "payable": false,
      "stateMutability": "view",
      "type": "function",
      "signature": "0xa3ec138d"
    },
    {
      "anonymous": false,
      "inputs": [
        {
          "indexed": false,
          "name": "id",
          "type": "uint256"
        },
        {
          "indexed": false,
          "name": "name",
          "type": "string"
        },
        {
          "indexed": false,
          "name": "voteCount",
          "type": "uint256"
        }
      ],
      "name": "CandidateAdded",
      "type": "event",
      "signature": "0xc0a81c9aad7f882e7dd72db314924227026255cc5ad0164435df572dec8c804d"
    },
    {
      "constant": false,
      "inputs": [
        {
          "name": "_name",
          "type": "string"
        }
      ],
      "name": "addCandidate",
      "outputs": [],
      "payable": false,
      "stateMutability": "nonpayable",
      "type": "function",
      "signature": "0x462e91ec"
    },
    {
      "constant": false,
      "inputs": [
        {
          "name": "_id",
          "type": "uint256"
        }
      ],
      "name": "voter",
      "outputs": [],
      "payable": false,
      "stateMutability": "nonpayable",
      "type": "function",
      "signature": "0xab8ed1ba"
    },
    {
      "constant": false,
      "inputs": [
        {
          "name": "_id",
          "type": "uint256"
        }
      ],
      "name": "voteCandidate",
      "outputs": [],
      "payable": false,
      "stateMutability": "nonpayable",
      "type": "function",
      "signature": "0x8c08a4dc"
    }
  ],
  "bytecode": "0x60806040526040805190810160405280600d81526020017f566f74696e6720776562417070000000000000000000000000000000000000008152506000908051906020019061004f92919061006c565b506000600155600060025534801561006657600080fd5b50610111565b828054600181600116156101000203166002900490600052602060002090601f016020900481019282601f106100ad57805160ff19168380011785556100db565b828001600101855582156100db579182015b828111156100da5782518255916020019190600101906100bf565b5b5090506100e891906100ec565b5090565b61010e91905b8082111561010a5760008160009055506001016100f2565b5090565b90565b6109c6806101206000396000f3fe60806040526004361061008e576000357c0100000000000000000000000000000000000000000000000000000000900463ffffffff16806306fdde03146100935780633477ee2e146101235780633866965c146101e5578063462e91ec146102105780635f5300ff146102d85780638c08a4dc14610303578063a3ec138d1461033e578063ab8ed1ba146103a7575b600080fd5b34801561009f57600080fd5b506100a86103e2565b6040518080602001828103825283818151815260200191508051906020019080838360005b838110156100e85780820151818401526020810190506100cd565b50505050905090810190601f1680156101155780820380516001836020036101000a031916815260200191505b509250505060405180910390f35b34801561012f57600080fd5b5061015c6004803603602081101561014657600080fd5b8101908080359060200190929190505050610480565b6040518084815260200180602001838152602001828103825284818151815260200191508051906020019080838360005b838110156101a857808201518184015260208101905061018d565b50505050905090810190601f1680156101d55780820380516001836020036101000a031916815260200191505b5094505050505060405180910390f35b3480156101f157600080fd5b506101fa610542565b6040518082815260200191505060405180910390f35b34801561021c57600080fd5b506102d66004803603602081101561023357600080fd5b810190808035906020019064010000000081111561025057600080fd5b82018360208201111561026257600080fd5b8035906020019184600183028401116401000000008311171561028457600080fd5b91908080601f016020809104026020016040519081016040528093929190818152602001838380828437600081840152601f19601f820116905080830192505050505050509192919290505050610548565b005b3480156102e457600080fd5b506102ed610674565b6040518082815260200191505060405180910390f35b34801561030f57600080fd5b5061033c6004803603602081101561032657600080fd5b810190808035906020019092919050505061067a565b005b34801561034a57600080fd5b5061038d6004803603602081101561036157600080fd5b81019080803573ffffffffffffffffffffffffffffffffffffffff1690602001909291905050506107f6565b604051808215151515815260200191505060405180910390f35b3480156103b357600080fd5b506103e0600480360360208110156103ca57600080fd5b8101908080359060200190929190505050610816565b005b60008054600181600116156101000203166002900480601f0160208091040260200160405190810160405280929190818152602001828054600181600116156101000203166002900480156104785780601f1061044d57610100808354040283529160200191610478565b820191906000526020600020905b81548152906001019060200180831161045b57829003601f168201915b505050505081565b6003602052806000526040600020600091509050806000015490806001018054600181600116156101000203166002900480601f0160208091040260200160405190810160405280929190818152602001828054600181600116156101000203166002900480156105325780601f1061050757610100808354040283529160200191610532565b820191906000526020600020905b81548152906001019060200180831161051557829003601f168201915b5050505050908060020154905083565b60015481565b600160008154809291906001019190505550606060405190810160405280600154815260200182815260200160008152506003600060015481526020019081526020016000206000820151816000015560208201518160010190805190602001906105b49291906108d3565b50604082015181600201559050507fc0a81c9aad7f882e7dd72db314924227026255cc5ad0164435df572dec8c804d6001548260006040518084815260200180602001838152602001828103825284818151815260200191508051906020019080838360005b8381101561063557808201518184015260208101905061061a565b50505050905090810190601f1680156106625780820380516001836020036101000a031916815260200191505b5094505050505060405180910390a150565b60025481565b600260008154809291906001019190505550600160036000838152602001908152602001600020600201540160036000838152602001908152602001600020600201819055506106c8610953565b606060405190810160405280838152602001600360008581526020019081526020016000206001018054600181600116156101000203166002900480601f0160208091040260200160405190810160405280929190818152602001828054600181600116156101000203166002900480156107845780601f1061075957610100808354040283529160200191610784565b820191906000526020600020905b81548152906001019060200180831161076757829003601f168201915b505050505081526020016003600085815260200190815260200160002060020154815250905080600360008481526020019081526020016000206000820151816000015560208201518160010190805190602001906107e49291906108d3565b50604082015181600201559050505050565b60046020528060005260406000206000915054906101000a900460ff1681565b600460003373ffffffffffffffffffffffffffffffffffffffff1673ffffffffffffffffffffffffffffffffffffffff16815260200190815260200160002060009054906101000a900460ff1615151561086f57600080fd5b6001600460003373ffffffffffffffffffffffffffffffffffffffff1673ffffffffffffffffffffffffffffffffffffffff16815260200190815260200160002060006101000a81548160ff0219169083151502179055506108d08161067a565b50565b828054600181600116156101000203166002900490600052602060002090601f016020900481019282601f1061091457805160ff1916838001178555610942565b82800160010185558215610942579182015b82811115610941578251825591602001919060010190610926565b5b50905061094f9190610975565b5090565b6060604051908101604052806000815260200160608152602001600081525090565b61099791905b8082111561099357600081600090555060010161097b565b5090565b9056fea165627a7a723058201237848ebaecfb9d6d26d924bfbc75f3709e3b2f7dfc7092825bcb18cc33e95e0029",
  "source": "pragma solidity ^0.5.0;\r\n\r\ncontract Voting {\r\n    string public name = \"Voting webApp\";\r\n    uint256 public totalCandidates = 0;\r\n    uint public totalVoters=0;\r\n\r\n    struct Candidate {\r\n        uint256 id;\r\n        string name;\r\n        uint256 voteCount;\r\n    }\r\n\r\n    event CandidateAdded(uint256 id, string name, uint256 voteCount);\r\n\r\n    mapping(uint256 => Candidate) public candidates;\r\n    mapping(address=>bool) public voters;\r\n\r\n    function addCandidate(string memory _name) public {\r\n        // Increment the count of total candidates\r\n        totalCandidates++;\r\n        candidates[totalCandidates] = Candidate(totalCandidates, _name, 0);\r\n\r\n        // trigger an event\r\n        emit CandidateAdded(totalCandidates, _name, 0);\r\n    }\r\n\r\n    function voter(uint _id)public{\r\n        // Check if the voter has already voted\r\n        require(!voters[msg.sender]);\r\n\r\n        // Store the record of the voter in map\r\n        voters[msg.sender]=true;\r\n\r\n        // Call the vote function\r\n        voteCandidate(_id);\r\n    }\r\n\r\n    function voteCandidate(uint _id) public{\r\n        // Increment total number of votes\r\n        totalVoters++;\r\n        // Increment Vote Count\r\n        candidates[_id].voteCount=candidates[_id].voteCount + 1;\r\n                \r\n        // Create a local structure of Candidate\r\n        Candidate memory _candidate=Candidate(_id,candidates[_id].name,candidates[_id].voteCount);\r\n\r\n        // Update\r\n        candidates[_id]=_candidate;\r\n    }\r\n}\r\n",
  "sourcePath": "C:/Users/zaid bhimala/Desktop/BlockChain/voting-app-blockchain/contracts/Voting.sol",
  "compiler": {
    "name": "solc",
    "version": "0.5.0+commit.1d4f565a.Emscripten.clang"
  },
  "schemaVersion": "3.0.2",
  "updatedAt": "2021-09-10T10:49:15.169Z",
  "devdoc": {
    "methods": {}
  },
  "userdoc": {
    "methods": {}
  }
}