{
  "contractName": "Voting",
  "abi": [
    {
      "constant": true,
      "inputs": [],
      "name": "name",
      "outputs": [
        {
          "name": "",
          "type": "string"
        }
      ],
      "payable": false,
      "stateMutability": "view",
      "type": "function",
      "signature": "0x06fdde03"
    },
    {
      "constant": true,
      "inputs": [],
      "name": "toRegisterCount",
      "outputs": [
        {
          "name": "",
          "type": "uint256"
        }
      ],
      "payable": false,
      "stateMutability": "view",
      "type": "function",
      "signature": "0x282a4270"
    },
    {
      "constant": true,
      "inputs": [
        {
          "name": "",
          "type": "uint256"
        }
      ],
      "name": "toRegister",
      "outputs": [
        {
          "name": "",
          "type": "address"
        }
      ],
      "payable": false,
      "stateMutability": "view",
      "type": "function",
      "signature": "0x310894f5"
    },
    {
      "constant": true,
      "inputs": [
        {
          "name": "",
          "type": "uint256"
        }
      ],
      "name": "candidates",
      "outputs": [
        {
          "name": "id",
          "type": "uint256"
        },
        {
          "name": "name",
          "type": "string"
        },
        {
          "name": "voteCount",
          "type": "uint256"
        },
        {
          "name": "author",
          "type": "address"
        }
      ],
      "payable": false,
      "stateMutability": "view",
      "type": "function",
      "signature": "0x3477ee2e"
    },
    {
      "constant": true,
      "inputs": [],
      "name": "totalCandidates",
      "outputs": [
        {
          "name": "",
          "type": "uint256"
        }
      ],
      "payable": false,
      "stateMutability": "view",
      "type": "function",
      "signature": "0x3866965c"
    },
    {
      "constant": true,
      "inputs": [],
      "name": "totalVoters",
      "outputs": [
        {
          "name": "",
          "type": "uint256"
        }
      ],
      "payable": false,
      "stateMutability": "view",
      "type": "function",
      "signature": "0x5f5300ff"
    },
    {
      "constant": true,
      "inputs": [
        {
          "name": "",
          "type": "address"
        }
      ],
      "name": "registers",
      "outputs": [
        {
          "name": "",
          "type": "bool"
        }
      ],
      "payable": false,
      "stateMutability": "view",
      "type": "function",
      "signature": "0x6aabc350"
    },
    {
      "constant": true,
      "inputs": [
        {
          "name": "",
          "type": "address"
        }
      ],
      "name": "voters",
      "outputs": [
        {
          "name": "",
          "type": "bool"
        }
      ],
      "payable": false,
      "stateMutability": "view",
      "type": "function",
      "signature": "0xa3ec138d"
    },
    {
      "constant": true,
      "inputs": [
        {
          "name": "",
          "type": "address"
        }
      ],
      "name": "registered",
      "outputs": [
        {
          "name": "",
          "type": "bool"
        }
      ],
      "payable": false,
      "stateMutability": "view",
      "type": "function",
      "signature": "0xb2dd5c07"
    },
    {
      "anonymous": false,
      "inputs": [
        {
          "indexed": false,
          "name": "id",
          "type": "uint256"
        },
        {
          "indexed": false,
          "name": "name",
          "type": "string"
        },
        {
          "indexed": false,
          "name": "voteCount",
          "type": "uint256"
        },
        {
          "indexed": false,
          "name": "author",
          "type": "address"
        }
      ],
      "name": "CandidateAdded",
      "type": "event",
      "signature": "0x41b47beeadf4df7323eee63081d8899b31ff31a352b4300397e16e4fd4ab145c"
    },
    {
      "constant": false,
      "inputs": [
        {
          "name": "_name",
          "type": "string"
        }
      ],
      "name": "addCandidate",
      "outputs": [],
      "payable": false,
      "stateMutability": "nonpayable",
      "type": "function",
      "signature": "0x462e91ec"
    },
    {
      "constant": false,
      "inputs": [
        {
          "name": "_id",
          "type": "uint256"
        }
      ],
      "name": "deleteCandidate",
      "outputs": [],
      "payable": false,
      "stateMutability": "nonpayable",
      "type": "function",
      "signature": "0x1e620cd4"
    },
    {
      "constant": false,
      "inputs": [
        {
          "name": "_id",
          "type": "uint256"
        }
      ],
      "name": "voter",
      "outputs": [],
      "payable": false,
      "stateMutability": "nonpayable",
      "type": "function",
      "signature": "0xab8ed1ba"
    },
    {
      "constant": false,
      "inputs": [],
      "name": "registerVoter",
      "outputs": [],
      "payable": false,
      "stateMutability": "nonpayable",
      "type": "function",
      "signature": "0xecb617d9"
    },
    {
      "constant": false,
      "inputs": [
        {
          "name": "_voter",
          "type": "address"
        }
      ],
      "name": "allowedByAdmin",
      "outputs": [],
      "payable": false,
      "stateMutability": "nonpayable",
      "type": "function",
      "signature": "0xc052d2b5"
    },
    {
      "constant": false,
      "inputs": [
        {
          "name": "_id",
          "type": "uint256"
        }
      ],
      "name": "voteCandidate",
      "outputs": [],
      "payable": false,
      "stateMutability": "nonpayable",
      "type": "function",
      "signature": "0x8c08a4dc"
    }
  ],
  "bytecode": "0x60806040526040805190810160405280600d81526020017f566f74696e6720776562417070000000000000000000000000000000000000008152506000908051906020019061004f929190610071565b5060006001556000600255600060035534801561006b57600080fd5b50610116565b828054600181600116156101000203166002900490600052602060002090601f016020900481019282601f106100b257805160ff19168380011785556100e0565b828001600101855582156100e0579182015b828111156100df5782518255916020019190600101906100c4565b5b5090506100ed91906100f1565b5090565b61011391905b8082111561010f5760008160009055506001016100f7565b5090565b90565b6110e480620001266000396000f3fe6080604052600436106100db576000357c0100000000000000000000000000000000000000000000000000000000900463ffffffff16806306fdde03146100e05780631e620cd414610170578063282a4270146101ab578063310894f5146101d65780633477ee2e146102515780633866965c14610346578063462e91ec146103715780635f5300ff146104395780636aabc350146104645780638c08a4dc146104cd578063a3ec138d14610508578063ab8ed1ba14610571578063b2dd5c07146105ac578063c052d2b514610615578063ecb617d914610666575b600080fd5b3480156100ec57600080fd5b506100f561067d565b6040518080602001828103825283818151815260200191508051906020019080838360005b8381101561013557808201518184015260208101905061011a565b50505050905090810190601f1680156101625780820380516001836020036101000a031916815260200191505b509250505060405180910390f35b34801561017c57600080fd5b506101a96004803603602081101561019357600080fd5b810190808035906020019092919050505061071b565b005b3480156101b757600080fd5b506101c061077b565b6040518082815260200191505060405180910390f35b3480156101e257600080fd5b5061020f600480360360208110156101f957600080fd5b8101908080359060200190929190505050610781565b604051808273ffffffffffffffffffffffffffffffffffffffff1673ffffffffffffffffffffffffffffffffffffffff16815260200191505060405180910390f35b34801561025d57600080fd5b5061028a6004803603602081101561027457600080fd5b81019080803590602001909291905050506107b4565b60405180858152602001806020018481526020018373ffffffffffffffffffffffffffffffffffffffff1673ffffffffffffffffffffffffffffffffffffffff168152602001828103825285818151815260200191508051906020019080838360005b838110156103085780820151818401526020810190506102ed565b50505050905090810190601f1680156103355780820380516001836020036101000a031916815260200191505b509550505050505060405180910390f35b34801561035257600080fd5b5061035b61089c565b6040518082815260200191505060405180910390f35b34801561037d57600080fd5b506104376004803603602081101561039457600080fd5b81019080803590602001906401000000008111156103b157600080fd5b8201836020820111156103c357600080fd5b803590602001918460018302840111640100000000831117156103e557600080fd5b91908080601f016020809104026020016040519081016040528093929190818152602001838380828437600081840152601f19601f8201169050808301925050505050505091929192905050506108a2565b005b34801561044557600080fd5b5061044e610a65565b6040518082815260200191505060405180910390f35b34801561047057600080fd5b506104b36004803603602081101561048757600080fd5b81019080803573ffffffffffffffffffffffffffffffffffffffff169060200190929190505050610a6b565b604051808215151515815260200191505060405180910390f35b3480156104d957600080fd5b50610506600480360360208110156104f057600080fd5b8101908080359060200190929190505050610a8b565b005b34801561051457600080fd5b506105576004803603602081101561052b57600080fd5b81019080803573ffffffffffffffffffffffffffffffffffffffff169060200190929190505050610c6a565b604051808215151515815260200191505060405180910390f35b34801561057d57600080fd5b506105aa6004803603602081101561059457600080fd5b8101908080359060200190929190505050610c8a565b005b3480156105b857600080fd5b506105fb600480360360208110156105cf57600080fd5b81019080803573ffffffffffffffffffffffffffffffffffffffff169060200190929190505050610d9f565b604051808215151515815260200191505060405180910390f35b34801561062157600080fd5b506106646004803603602081101561063857600080fd5b81019080803573ffffffffffffffffffffffffffffffffffffffff169060200190929190505050610dbf565b005b34801561067257600080fd5b5061067b610e73565b005b60008054600181600116156101000203166002900480601f0160208091040260200160405190810160405280929190818152602001828054600181600116156101000203166002900480156107135780601f106106e857610100808354040283529160200191610713565b820191906000526020600020905b8154815290600101906020018083116106f657829003601f168201915b505050505081565b600460008281526020019081526020016000206000808201600090556001820160006107479190610f8c565b60028201600090556003820160006101000a81549073ffffffffffffffffffffffffffffffffffffffff0219169055505050565b60035481565b60076020528060005260406000206000915054906101000a900473ffffffffffffffffffffffffffffffffffffffff1681565b6004602052806000526040600020600091509050806000015490806001018054600181600116156101000203166002900480601f0160208091040260200160405190810160405280929190818152602001828054600181600116156101000203166002900480156108665780601f1061083b57610100808354040283529160200191610866565b820191906000526020600020905b81548152906001019060200180831161084957829003601f168201915b5050505050908060020154908060030160009054906101000a900473ffffffffffffffffffffffffffffffffffffffff16905084565b60015481565b6001600081548092919060010191905055506080604051908101604052806001548152602001828152602001600081526020013373ffffffffffffffffffffffffffffffffffffffff1681525060046000600154815260200190815260200160002060008201518160000155602082015181600101908051906020019061092a929190610fd4565b506040820151816002015560608201518160030160006101000a81548173ffffffffffffffffffffffffffffffffffffffff021916908373ffffffffffffffffffffffffffffffffffffffff1602179055509050507f41b47beeadf4df7323eee63081d8899b31ff31a352b4300397e16e4fd4ab145c6001548260003360405180858152602001806020018481526020018373ffffffffffffffffffffffffffffffffffffffff1673ffffffffffffffffffffffffffffffffffffffff168152602001828103825285818151815260200191508051906020019080838360005b83811015610a25578082015181840152602081019050610a0a565b50505050905090810190601f168015610a525780820380516001836020036101000a031916815260200191505b509550505050505060405180910390a150565b60025481565b60066020528060005260406000206000915054906101000a900460ff1681565b60026000815480929190600101919050555060016004600083815260200190815260200160002060020154016004600083815260200190815260200160002060020181905550610ad9611054565b608060405190810160405280838152602001600460008581526020019081526020016000206001018054600181600116156101000203166002900480601f016020809104026020016040519081016040528092919081815260200182805460018160011615610100020316600290048015610b955780601f10610b6a57610100808354040283529160200191610b95565b820191906000526020600020905b815481529060010190602001808311610b7857829003601f168201915b50505050508152602001600460008581526020019081526020016000206002015481526020013373ffffffffffffffffffffffffffffffffffffffff1681525090508060046000848152602001908152602001600020600082015181600001556020820151816001019080519060200190610c11929190610fd4565b506040820151816002015560608201518160030160006101000a81548173ffffffffffffffffffffffffffffffffffffffff021916908373ffffffffffffffffffffffffffffffffffffffff1602179055509050505050565b60056020528060005260406000206000915054906101000a900460ff1681565b600860003373ffffffffffffffffffffffffffffffffffffffff1673ffffffffffffffffffffffffffffffffffffffff16815260200190815260200160002060009054906101000a900460ff161515610ce257600080fd5b600560003373ffffffffffffffffffffffffffffffffffffffff1673ffffffffffffffffffffffffffffffffffffffff16815260200190815260200160002060009054906101000a900460ff16151515610d3b57600080fd5b6001600560003373ffffffffffffffffffffffffffffffffffffffff1673ffffffffffffffffffffffffffffffffffffffff16815260200190815260200160002060006101000a81548160ff021916908315150217905550610d9c81610a8b565b50565b60086020528060005260406000206000915054906101000a900460ff1681565b600860008273ffffffffffffffffffffffffffffffffffffffff1673ffffffffffffffffffffffffffffffffffffffff16815260200190815260200160002060009054906101000a900460ff16151515610e1857600080fd5b6001600860008373ffffffffffffffffffffffffffffffffffffffff1673ffffffffffffffffffffffffffffffffffffffff16815260200190815260200160002060006101000a81548160ff02191690831515021790555050565b600660003373ffffffffffffffffffffffffffffffffffffffff1673ffffffffffffffffffffffffffffffffffffffff16815260200190815260200160002060009054906101000a900460ff16151515610ecc57600080fd5b6003600081548092919060010191905055506001600660003373ffffffffffffffffffffffffffffffffffffffff1673ffffffffffffffffffffffffffffffffffffffff16815260200190815260200160002060006101000a81548160ff0219169083151502179055503360076000600354815260200190815260200160002060006101000a81548173ffffffffffffffffffffffffffffffffffffffff021916908373ffffffffffffffffffffffffffffffffffffffff160217905550565b50805460018160011615610100020316600290046000825580601f10610fb25750610fd1565b601f016020900490600052602060002090810190610fd09190611093565b5b50565b828054600181600116156101000203166002900490600052602060002090601f016020900481019282601f1061101557805160ff1916838001178555611043565b82800160010185558215611043579182015b82811115611042578251825591602001919060010190611027565b5b5090506110509190611093565b5090565b608060405190810160405280600081526020016060815260200160008152602001600073ffffffffffffffffffffffffffffffffffffffff1681525090565b6110b591905b808211156110b1576000816000905550600101611099565b5090565b9056fea165627a7a72305820665c8cbf930825ec5dc08b12a0898d12ff5eff03c1fb9ac898171da11d5c34720029",
  "source": "pragma solidity ^0.5.0;\r\n\r\ncontract Voting {\r\n    string public name = \"Voting webApp\";\r\n    uint256 public totalCandidates = 0;\r\n    uint256 public totalVoters = 0;\r\n    uint256 public toRegisterCount = 0;\r\n\r\n    struct Candidate {\r\n        uint256 id;\r\n        string name;\r\n        uint256 voteCount;\r\n        address author;\r\n    }\r\n\r\n    event CandidateAdded(\r\n        uint256 id,\r\n        string name,\r\n        uint256 voteCount,\r\n        address author\r\n    );\r\n\r\n    mapping(uint256 => Candidate) public candidates;\r\n    mapping(address => bool) public voters;\r\n    mapping(address => bool) public registers;\r\n    mapping(uint256 => address) public toRegister;\r\n    mapping(address => bool) public registered;\r\n\r\n    function addCandidate(string memory _name) public {\r\n        // Increment the count of total candidates\r\n        totalCandidates++;\r\n        candidates[totalCandidates] = Candidate(\r\n            totalCandidates,\r\n            _name,\r\n            0,\r\n            msg.sender\r\n        );\r\n\r\n        // trigger an event\r\n        emit CandidateAdded(totalCandidates, _name, 0, msg.sender);\r\n    }\r\n\r\n    function deleteCandidate(uint256 _id) public {\r\n        delete candidates[_id];\r\n    }\r\n\r\n    function voter(uint256 _id) public {\r\n        // Check if the voter has registered\r\n        require(registered[msg.sender]);\r\n\r\n        // Check if the voter has already voted\r\n        require(!voters[msg.sender]);\r\n\r\n        // Store the record of the voter in map\r\n        voters[msg.sender] = true;\r\n\r\n        // Call the vote function\r\n        voteCandidate(_id);\r\n    }\r\n\r\n    function registerVoter() public {\r\n        // check if voter has not registered before already\r\n        require(!registers[msg.sender]);\r\n        toRegisterCount++;\r\n        // Register the voter\r\n        registers[msg.sender] = true;\r\n        toRegister[toRegisterCount] = msg.sender;\r\n    }\r\n\r\n    function allowedByAdmin(address _voter) public {\r\n        // Check if the voter has not already been registered\r\n        require(!registered[_voter]);\r\n\r\n        registered[_voter] = true;\r\n    }\r\n\r\n    function voteCandidate(uint256 _id) public {\r\n        // Increment total number of votes\r\n        totalVoters++;\r\n        // Increment Vote Count\r\n        candidates[_id].voteCount = candidates[_id].voteCount + 1;\r\n\r\n        // Create a local structure of Candidate\r\n        Candidate memory _candidate = Candidate(\r\n            _id,\r\n            candidates[_id].name,\r\n            candidates[_id].voteCount,\r\n            msg.sender\r\n        );\r\n        // Update\r\n        candidates[_id] = _candidate;\r\n    }\r\n}\r\n",
  "sourcePath": "C:/Users/zaid bhimala/Desktop/PROJECTS/voter-app-BlockChain/contracts/Voting.sol",
  "compiler": {
    "name": "solc",
    "version": "0.5.0+commit.1d4f565a.Emscripten.clang"
  },
  "schemaVersion": "3.0.2",
  "updatedAt": "2021-09-20T17:27:40.086Z",
  "devdoc": {
    "methods": {}
  },
  "userdoc": {
    "methods": {}
  }
}